:020000041000EA
:1000000000B5324B212058609868022188439860DF
:10001000D860186158612E4B002199600221596106
:100020000121F02299502B49196001219960352056
:1000300000F044F80222904214D00621196600F024
:1000400034F8196E01211966002018661A6600F04E
:100050002CF8196E196E196E052000F02FF8012189
:100060000842F9D1002199601B49196000215960AB
:100070001A491B48016001219960EB211966A021F2
:10008000196600F012F800219960164914480160C1
:100090000121996001BC002800D000471248134993
:1000A000086003C880F30888084703B5996A0420EC
:1000B0000142FBD001200142F8D103BD02B5186610
:1000C0001866FFF7F2FF186E186E02BD00000240BE
:1000D000000000180000070000035F00212200005C
:1000E000F4000018222000A00001001008ED00E03C
:1000F00000000000000000000000000074B24E7A12
:1001000000200420F7010010C3010010C5010010F9
:10011000C1010010C1010010C1010010C101001097
:10012000C1010010C1010010C1010010C701001081
:10013000C1010010C1010010C9010010CB01001065
:10014000CD010010CD010010CD010010CD01001037
:10015000CD010010CD010010CD010010CD01001027
:10016000CD010010CD010010CD010010CD01001017
:10017000CD010010CD010010CD010010CD01001007
:10018000CD010010CD010010CD010010CD010010F7
:10019000CD010010CD010010CD010010CD010010E7
:1001A000CD010010CD010010CD010010CD010010D7
:1001B000CD010010CD010010CD010010CD010010C7
:1001C00000BE00BE00BE00BE00BE00BE00F04BF888
:1001D000103800BEF2EB8871A8C00010C8C0001033
:1001E0003402001090A31AE700202149086006C8D5
:1001F00081F3088810471F48006800282FD10DA4FC
:100200000ECC002902D000F012F8F9E71A491B4A77
:10021000002000E001C19142FCD1194988471949E9
:1002200088471949884700BEFDE701C901C29A42C3
:10023000FBD37047C8C00010C0000020F40B0020A2
:10024000FCCB00100000042000000420FCCB0010B8
:1002500000100420001004200000000070470B482C
:1002600001F034FD0047EFF30580C0B27047000095
:1002700008ED00E0000000D0F80B0020241B002057
:10028000CD1300105D030010ED1400105756000050
:1002900006005250ABB36053B86F001006005250C6
:1002A000861C0302C86F0010060052505422A29D03
:1002B000CC6F001005005250DE65F468FCCB0010D6
:1002C000F8B5C0460448054B10B5834203D0044B33
:1002D000002B00D0984710BDF40B0020F40B002039
:1002E0000000000006480749091A8B10C90FC918F9
:1002F00010B5491003D0044B002B00D0984710BD17
:10030000F40B0020F40B00200000000010B5074C97
:100310002378002B09D1FFF7D5FF054B002B02D026
:10032000044800E000BF0123237010BD000D002031
:1003300000000000306F0010054B10B5002B03D0FB
:100340000449054800E000BFFFF7CCFF10BDC046E0
:1003500000000000040D0020306F0010FA2010B5DE
:10036000400006F0FDF804F0B5F8002010BDC046CE
:10037000094A830094464022634410B51C68C000BB
:100380006240C02414408022520113431C60034B7E
:100390009C466044416010BD04C0014000400140E3
:1003A0000123D0228340120693629361094A83009D
:1003B0009446402263441968C0004A40C02111405D
:1003C0008022520113431960034B9C46052360446D
:1003D0004360704704C0014000400140F8B5CE467C
:1003E0004746914680B5EFF3108772B6124E3368D8
:1003F000002BFCD0BFF35F8FCB08C55C0724C2186D
:10040000280001230C409446E0401A000240904628
:1004100003420DD1A34062462B431370BFF35F8F9D
:100420004346336087F310880CBC90469946F8BD6C
:10043000484601F05DF8C0462C0100D0F8B54746AB
:10044000CE46884680B5EFF3108C72B6214D2C68ED
:10045000002CFCD0BFF35F8F9A422DD8D408055DE5
:10046000071907242E001440E640F1071ED5072186
:100470008946063908E0D408055D07194C462E0068
:100480001440E640314211D001329342F3D20120B0
:100490004042BFF35F8F00220E4B1A608CF310882E
:1004A000002811DB0CBC90469946F8BD0123A340FF
:1004B0001D4310003D70ECE7BFF35F8F00232B60FE
:1004C0008CF31088012040424346002BEAD0089864
:1004D00001F00EF82C0100D00021044B044ABFF3B8
:1004E0005F8F02C39342FAD17047C046000100D02B
:1004F000800100D0044A1078431CDBB2172B00D9CE
:10050000102313707047C0469802002000B5054BB9
:1005100083B00100009318221F230348FFF78EFFCA
:1005200003B000BD306F0010D0100020024B1868DF
:100530008007C00F7047C04600C0064083680B4864
:1005400010B5844661446244090112019A18591891
:1005500054684B6801209C4201D802D00020C0B2F0
:1005600010BD12680B689A42F9D8F7E7FFFFFF0F3A
:1005700040BF002000217047F8B557464E4645461B
:10058000DE46E0B5434D81468A466A68EFF310883F
:1005900072B61368002BFCD0BFF35F8F2E68B47B5C
:1005A000002C3ED0670033683F19033FDA195378B7
:1005B000B373002B00D1F373002393705370137047
:1005C000A968354A8C464946A21812016244116056
:1005D000514651603149D36091603268D2199370AD
:1005E00053701370737B9B46002B35D0220019008B
:1005F000B068736898473268002820D05B46584638
:100600005B005B44D719033BB870D118D35C002B57
:1006100000D07B705B460C7073735C451DD0002668
:1006200026E06B68BFF35F8F1C6088F310880120A1
:1006300040423CBC90469946A246AB46F8BD5B465C
:100640005B005B44033BD3189C70D119D25D002A38
:1006500000D05A705B460B7074734A465346287D2F
:1006600000F00EFC061EDAD02100286800F070FEB3
:10067000EB686A681B19013B1B78BFF35F8F002191
:10068000116088F310880020002ED2D11802204378
:10069000CFE7C0469C020020FFFFFF0F710500104E
:1006A000F8B5574645464E46DE46E0B599460CAB92
:1006B00019780DAB1B78050090469A46076800290B
:1006C00012D1BE7B002E45D074003B68A419033CB8
:1006D0001B195A783100BA73002A00D1FA7300222C
:1006E0009A705A701A7003E00E004C006418033CB4
:1006F0002C4B00229C46AB6861449C464346090152
:1007000061440B604B464B600A9B8B600B9BCB603C
:100710003B681B199A705A701A707B7B9B46002BA2
:100720002CD032005946B8687B6898473A68002850
:1007300017D05B4658465B005B441419033BA0701E
:10074000D118D35C002B00D063705B460E707B73B6
:10075000B34514D030003CBC90469946A246AB4607
:10076000F8BD5B465B005B44033BD3189E701119D8
:10077000125D002A00D05A705B460B707E734246B1
:100780004B46287D00F07CFB041E06D05346002B10
:1007900003D13100286800F0DBFD0E9B002BD9D07F
:1007A0001C70D7E7FFFFFF0FF0B5DE464E465746F9
:1007B00045460023E0B58DB00A936B4B8200D358B9
:1007C0000B90994600239B464B46079300F0F8FA9E
:1007D000079C06000F006268EFF3108572B613687D
:1007E000002BFCD022000794BFF35F8F2468637B4B
:1007F0009946002B67D092685C4B90464B441B0196
:10080000984443461A685B6810001900801BB94180
:1008100000295FDD0B9800F033FB0023002698468B
:1008200000279A46079C6368BFF35F8F5A461A6099
:1008300085F310885346002B08D10028C6D10DB08F
:100840003CBC90469946A246AB46F0BD0A9B414649
:1008500018024B461843D047089009916268EFF39D
:10086000108572B61368002BFCD00794BFF35F8F1E
:100870000899099A002A48DB114303D0079B1B699A
:10088000002B5DD1079B1B68DA7B002A07D0510043
:100890008A1819688C4649466244033A51704A46A0
:1008A000DA734B46079A013BD168CA5C0132CA54DD
:1008B0005B46079A13615368BFF35F8F5A461A600D
:1008C00085F3108882E700230026984600279A4681
:1008D0000020A7E7002901D100289BD1002120009A
:1008E00000F098FC43461E685F689B68079A9A462A
:1008F0004346DB689846D3684B44013B1B780A9318
:100900001B020343136100208CE72369002BB9D03D
:1009100033003C005B1A94411A002300A74219D807
:100920009F421BD0594604910121039149460291EF
:1009300041460191514607980091FFF7B1FEB7E794
:1009400000F03EFA089A099B06000F0092197B41BD
:100950009942E5D901225242D317E3E79642E1D901
:1009600001225242D317DDE7FC170020FFFFFF0FE3
:1009700010B5104C6368002B00D010BD23000E4A48
:100980001021206800F064FB032000F00DFA032022
:1009900000F0E8FA0320094900F02CFAFFF7AAFD5D
:1009A000074B9C46032360442375064B8000606020
:1009B000DC60E2E79C0200203D050010A907001062
:1009C00040000034FC170020004870479C020020C3
:1009D000F0B557464546DE464E46E0B585B0019334
:1009E00010AB1B7800270393002380469A460092A1
:1009F00043465A68EFF3108972B61368002BFCD097
:100A0000BFF35F8F43461D68AC7B002C4FD0660060
:100A10002B683619033E9B195A78AA73002A00D115
:100A2000EA7342469F705F701F709268524B944603
:100A30000099019AE3181B01634419605A600E9AE9
:100A40009A600F9ADA602B689B199F705F701F7015
:100A50006B7B9B46002B46D022001900A8686B6870
:100A600098472A68002831D05B4658465B005B44B3
:100A70009619033BB070D118D35C002B00D0737073
:100A80005B460C706B735C452ED04346DB681B19CC
:100A9000013B187843465B68BFF35F8F1F6089F3A3
:100AA00010885346002B2ED10002204307E05B68DC
:100AB000BFF35F8F1C6089F310880120404205B0AE
:100AC0003CBC90469946A246AB46F0BD5B465B00F7
:100AD0005B44033BD3189C709119925D002A00D0AF
:100AE0005A705B460B706C734346187D009A019BED
:100AF00000F0C6F982460028C7D043462100186896
:100B000000F026FCC1E7039B002B32D00E9B002097
:100B10000F999847030004000D000B4329D00029CA
:100B20000DDA0098019902000B00121BAB419942AB
:100B300015D81AD000920193039B9A4658E700F00B
:100B40003FF902000B00A4185D412000290000902D
:100B50000191AB4203D8EFD100998A42ECD901232D
:100B60005B42DC1700930194E6E700999142E1D9DA
:100B7000F5E70020A3E7C046FFFFFF0FF8B504002C
:100B800000F01EF9FA2206000F00200000230021C9
:100B9000920001F08BF98019794104000D008F4219
:100BA0002DD82AD006267642F71736196F41AF4264
:100BB0002CD90026002700F003F932003B00121A5E
:100BC0008B41002B07DC04D02900200000F002F943
:100BD000F8BD002AF8D030003900FFF7CDFC00281E
:100BE000F2DB38000C4A536A984204D8916A8E426C
:100BF000EAD99842E8D120BFF5E78642D2D901244C
:100C00006442E51707267642F717D4E7AF42D2D100
:100C1000A642CED8CFE7C04600400540F8B5CE4644
:100C2000474680B506000C00FFF7A6FC00280CDC48
:100C30002D4B0020596A8C4203D89B6A0130B34285
:100C400045D30CBC90469946F8BD20BF274D6A6835
:100C5000EFF3108772B61368002BFCD0BFF35F8FE1
:100C60002B68C1B29C465B7B8B4235D0FF2303408F
:100C70005A00914662461268994490464A46424458
:100C8000033A9278002A1DD0EA68000A904643444D
:100C9000013B1B78C0B2834221D06B68BFF35F8FEA
:100CA00000221A6087F310880F4A0020536A9C4282
:100CB000C7D8926A0130B242C3D2E41A601E84419E
:100CC000E0B2BEE72B699842E7D12A61E5E7641AF2
:100CD000601E8441E0B2B4E7FF230340D4E76046DE
:100CE00000F036FBD9E7C046004005409C020020DA
:100CF000F0B5D6464F464646C0B5EFF305833F22D2
:100D0000134018001038EFF3108C72B6204D2A688B
:100D1000002AFCD0BFF35F8F0122110081401D4CDF
:100D2000884661631C4917000E788A463100C1402D
:100D30000F400A4215D019498200646A51588C420A
:100D400019D3174BD25843469E4353461E70BFF3E8
:100D50005F8F00232B608CF31088002A06D0904709
:100D600004E0BFF35F8F2F608CF310881CBC9046AB
:100D70009946A246F0BD0B4A9B00904643441A6830
:100D80001A60BFF35F8F00232B608CF31088EDE7B0
:100D9000280100D0004005402A1800201418002027
:100DA000C0100020D03F054010B50100024A0348A2
:100DB000FFF714FB10BDC0464C6F00102718002031
:100DC000034B596A0A00986A596A8A42FAD17047F5
:100DD00000400540064A536A9942FCD807D1044BAB
:100DE00002E05A6A914202D19A6A8242F9D370476C
:100DF0000040054070B504000D00EFF3108672B698
:100E00001A4A1368002BFCD0BFF35F8F002D1BD054
:100E1000200000F0ADFD164981420AD0200000F00C
:100E2000AFFD0121200000F089FD0123A340114AFC
:100E30001360114BA400E550BFF35F8F00220B4BF2
:100E40001A6086F3108870BD0B4BA200D5500122AA
:100E5000A2400A4920000B7893430B70044900F02C
:100E6000B9FD0021200000F069FDE5E7280100D070
:100E7000F10C001038600540C01000202A18002036
:100E8000F0B54F46D6464646C0B50700304C616ABD
:100E90000D00A66A616AA942FAD18B4208D805D032
:100EA00001201CBC90469946A246F0BDB242F7D93B
:100EB000EFF3108972B6274801680029FCD0BFF310
:100EC0005F8F01252449BD408C460978204C0E00D7
:100ED0002E438846F1B28A46614650460870391D55
:100EE0001E48890065630A51B9000B50216A002031
:100EF000294219D0616A0800A66A616A8142FAD162
:100F00008B4219D801D1B24216D8C2451DD0104B20
:100F10001F201D625D6301230740BB40104A1E383D
:100F20001360634642461A70BFF35F8F0022094B7D
:100F30001A6089F31088B4E70020BFF35F8F0022A6
:100F4000044B1A6089F31088ABE70120ECE7C04638
:100F500000400540280100D02A1800201418002065
:100F600080E200E010B5EFF3108472B60A490B6816
:100F7000002BFCD0BFF35F8F01238340074A084852
:100F8000136202789A430270BFF35F8F00230B60F5
:100F900084F3108810BDC046280100D000400540F1
:100FA0002A180020024B9C4661448900016070476A
:100FB0004000003410B50400FFF79CFA0100200047
:100FC000FFF7F0FFFF232371BFF35F8F10BDC04613
:100FD00010B504000120FFF799FA01002000FFF787
:100FE000E1FFBFF35F8F10BD70B505000E00140068
:100FF000002924D0002A24D080686B68984729688B
:1010000000280ED063001B197200033B9219CB1805
:10101000033A9E7088188A5C002A14D1047030004C
:101020000EE073009B196200033B1219CB18033AC0
:101030009C7088188A5C002A00D05A7006702000C4
:1010400070BD0800FCE75A7004703000F8E7C04635
:1010500030B583600023CCB2437301330473426024
:101060008373C4730D000068012C06D9421C013340
:10107000DBB2137003329C42F9D1FF2129404B00AF
:101080005918002340180338437030BDF8B5CE46D8
:10109000474606000C0080B5002907D04D000368C4
:1010A0006D18033D5A195778002F04D120000CBC4D
:1010B00090469946F8BD7900C919033988464344DA
:1010C0005978894600215970517073683A0021009F
:1010D000806898473368002814D042469A18947064
:1010E00059195B5D002B00D053700F7027004946E3
:1010F0003000FFF7CBFF390002003000FFF774FF2C
:101100000400D3E7424641465D19AF709A185B5C14
:10111000002B00D06B701470E9E7C046F0B557465D
:101120004546DE464E46E0B50D006B0001685B1992
:10113000DF1E0400C85D83B00192CA1900284CD09C
:1011400043001B18033BCB185E78B446002E16D123
:10115000019E002E3ED0E67B002E04D073009B192A
:10116000CB18033B5D70E57300282FD1002353702B
:1011700003B03CBC90469946A246AB46F0BD720017
:101180006244033A89184A78904600224A70914690
:101190005A70010032002000FFF726FF43468246C6
:1011A000002B07D05B0021684344033BCB185A78DF
:1011B000002A16D1424651462000FFF715FF21684C
:1011C000019BCA19002BC6D10028CFD043001B18A1
:1011D000033BCB1800219970C8E7019B002BBAD1C3
:1011E000C4E75000801803380918487883464846F9
:1011F0004870587041462000FFF7F6FE5946804679
:101200002000FFF743FF414602002000FFF7ECFEFD
:101210008046CFE7F0B54E464546DE465746E0B538
:10122000467B040075000068AD19033D83B0019151
:10123000415D421900294ED04B005B18033BC31897
:101240005F78BC46002F18D1019D002D40D0E57B72
:10125000002D04D06B005B19C318033B5E70E6736E
:10126000002931D1002330005370617303B03CBCBE
:1012700090469946A246AB46F0BD7A006244033AD6
:101280008018427893460022427091465A7020009E
:101290003A00FFF7A9FE5B468046002B07D05B00B3
:1012A00021685B44033BCB185A78002A17D15A4671
:1012B00041462000FFF798FE019B0100206842197B
:1012C000002BC4D10029CDD04B005B18033BC318C1
:1012D00000209870C6E7019B002BB8D1C2E75000F0
:1012E0008018033809184878824648464870587074
:1012F00059462000FFF778FE53468346002B07D05F
:101300005B0021685344033BCB185A78002A06D16E
:10131000594652462000FFF767FE8346C7E7500054
:1013200080180338091848464F784870587051465D
:101330002000FFF759FE390081462000FFF7A6FE86
:10134000494602002000FFF74FFE8246E0E7C04614
:1013500070B5040000292CD0437B8B422ED0056849
:1013600048004018033828188278002A21D05300FA
:101370009B18033BEA5CEE188A4202D11BE0002A6C
:1013800008D053009B18033BEB185A788A42F6D1D9
:1013900042785A7000230122837043702000FFF7C7
:1013A000BDFE617B02002000FFF71EFE607301207E
:1013B00000E0002070BD43783370EBE70122190094
:1013C000FFF7ACFE60730120F4E7C0462B4B2C4ABC
:1013D00070B51A602B4A2C4B2C491A6010008B6890
:1013E0009843FBD12A4C2B4B9C4209D2013B1D1B3D
:1013F000AD080135AD002D1908CC9847AC42FBD1A2
:1014000000F094F8244A204B1A60204A9368DB01CC
:101410008033FBD14022214B214C9A675A671A67CF
:10142000DA66204B9C420BD2013B1D1BED080135B7
:10143000ED002D1920000834FFF7BCFDAC42F9D1B6
:10144000194C1A4DA168C022280000F0B5FDA56016
:10145000FFF742F800F0F6FBFFF78AFA144C154B41
:101460009C4209D2013B1D1BAD080135AD002D1971
:1014700008CC9847A542FBD170BDC04600E00040B3
:10148000BFCDFFFFFE7F3C0000F0004000C00040E9
:10149000E00B0020F00B0020FFFFFF0100F00140F7
:1014A000D80B0020E00B002000ED00E00000002041
:1014B000F00B0020F40B0020094A030010680028FC
:1014C00005D00849C3188B4207D8136070470648F7
:1014D0000449C31810608B42F7D901204042F5E758
:1014E0006C11002000000420241B002000BEFDE73A
:1014F0000FB400B5084883B000F034FE049B002B05
:1015000007D005A91800019100F0C0FB034800F0C6
:1015100029FE00BEFDE7C046706F0010806F00100E
:1015200010B50148FFF7E4FF846F001030B50C20C0
:1015300083B000F071F9FEF7F9FF00280ED09A4B46
:101540009A4A1A605A609A60DA601A615A619A611E
:10155000DA611A62964A5A6203B030BD954CA067B0
:1015600000F0AEF90122944B1A60636C012BFCD1A0
:101570000322924B1A608F4A936B012BFCD1C0223D
:101580008F4B92011A608F4B8F491A6010008B6845
:101590009843031EFAD1022401218C4A8C48063359
:1015A000009400F0A1F905238A4A01218A48009499
:1015B00000F09AF9894B5A68FF2A02D8802252001B
:1015C0005A608022784C7D4B21691201834D1A604C
:1015D000002905D0606900F0D3FB01300138FDD14E
:1015E000E0217E4B02201A681140802252012A43DA
:1015F00011601968484003210140116004219A6874
:101600001142FCD08022802192012A4309011160FD
:10161000802252005A60724B2361724B5968FF2935
:1016200000D85A6003226F48634B01211A60020000
:1016300093681942FCD0E02513681D4080235B01AC
:1016400003431D6012684A400321114019600221C2
:10165000644A93681942FCD0802380219B01034394
:10166000090119608021604B4900516063615F4B43
:101670005A68FF2A00D8596080225D4BE169120147
:101680005A4D1A60002905D0606900F079FB0130DD
:101690000138FDD1E02255490B681A4080235B01D7
:1016A0002B431A60802380229B012B4312011A6076
:1016B00080223E4B52004A60E3614E4B5968FF293D
:1016C00000D85A6080224C4B216A1201494D1A60A1
:1016D000002905D0606900F053FB01300138FDD1CD
:1016E000E02244490B681A4080235B012B431A60B7
:1016F000802380229B012B4312011A6080238022C9
:101700005B004B60294BD20223623C4B59689142EB
:1017100000D25A6080223A4B616A1201374D1A603A
:10172000002905D0606900F02BFB01300138FDD1A4
:10173000E02232490B681A4080235B012B431A6078
:10174000802380229B012B4312011A608023DB023D
:101750004B60174B63622B4B5A68FF2A02D88022DA
:1017600052005A608022284BA1691201254D1A604F
:10177000002905D0606900F003FB01300138FDD17C
:10178000E02220490B681A4080235B012B431A603A
:10179000802380229B012B4312011A6080235B006F
:1017A0004B60114BA361D7E6D4100020006CDC0223
:1017B0001BB70000008000403CB0004030B000404B
:1017C00000E0004000F0004000C00040002F6859D9
:1017D0000080024000389C1C00C002403080004065
:1017E000001BB7003C800040405973075480004004
:1017F00054B000406080004060B000406C80004009
:101800006CB000404880004048B00040014B800070
:10181000C0587047D41000208023024A9B00034325
:10182000D36270470080054010B5140080221A4B27
:10183000D2051A6000282CD00123184A1843184BEF
:10184000DA61184A42401A62596298628022124B49
:10185000D2051A601449154A1160E022D2041A60B8
:10186000002C12D080236201121B92001219120167
:101870005B049A4200D30E4A0E4B1A60084B5A6022
:1018800080220D4BD2051A6010BD0C4A094B1A601C
:10189000F4E7034BD861D9E700B00540D3C007B0E7
:1018A000008005402D3FF84FFCFF0100082001405B
:1018B000FFFFFF00F417002000A00540A0860100F4
:1018C000AA23064A1B0113602F230549D360054B49
:1018D00019605368002BFCDA7047C0460040024094
:1018E00000B0FA0000600240F8B51E0001235B4220
:1018F000436000230400836001600C20170000F0A7
:101900003FFA4101091A8D01691AC90009188901B4
:10191000380000F035FAC021231D89011943212325
:10192000A0600B602268002AFCDA069B36041B03C9
:101930001E430823E6600B60F8BDC04601238340C8
:10194000002904D0034A1360034A13607047034A16
:101950001360FBE780E200E000E100E080E100E0EE
:1019600001238340014A13607047C04600E200E053
:10197000024B10309B688000C058704700ED00E0BB
:1019800070B50D00EFF3108672B60F4A1368002B86
:10199000FCD0BFF35F8F0D4B10309B6884001B5948
:1019A0000B4A934203D09D4201D0FFF7B9FD074B8C
:1019B0009B681D51BFF35F8FBFF35F8F0022024B07
:1019C0001A6086F3108870BD240100D000ED00E09D
:1019D000CD010010F0B5DE4657464E464546E0B50F
:1019E0000C0083B0EFF3108A72B65B4A1368002BC9
:1019F000FCD0BFF35F8F1022914681444A46574B7B
:101A000096009B689D59564B98469D4205D0A5422D
:101A100016D0544FEB1B2F2B14D9504B9B689D5164
:101A2000BFF35F8FBFF35F8F00224B4B1A608AF3C7
:101A3000108803B03CBC90469946A246AB46F0BD28
:101A40001D00EAE7012383409B465A46464B1B682C
:101A50001A4000925A46454B1A60BFF35F8FFEF75B
:101A600002FC0190002803D0814501D0FFF758FD0A
:101A700001232A009A431300DB1B5B41424959436F
:101A8000090D93689C4208D15BE043001B189B0042
:101A9000FB189868A04211D01A00062010560028A2
:101AA000F3DA009B002B05D05A46314B1A602E4BBF
:101AB0001A60B2E75A462D4B1A60AEE70620185658
:101AC000002822DB4200111889007C188846A16892
:101AD0009960E179D971062161569971A1797F29BF
:101AE0001FD8A488F91A6405241544440919E02470
:101AF0000905490D24022143998012181D4B9200BB
:101B0000BF181A781870BA71CBE7019800280BD16A
:101B1000FF30907118489080164A107811709871B3
:101B2000BFE7BD210902E7E7144A1549D21A083A6E
:101B30005002400D01439980124952080A43DA804D
:101B4000AFE70620105613000028BBDA019A002ADE
:101B5000EAD14546E0E7C046240100D000ED00E0B0
:101B6000CD010010C402002000E100E080E100E0AF
:101B700080E200E02818002000BDFFFFFE020020E8
:101B800000F0FFFF00F8FFFFAAAA0000F8B501254A
:101B900004000543FEF767FB0200EFF3108672B600
:101BA00021490B68002BFCD0BFF35F8F1F49200039
:101BB000401A4041224B43431B0D1D489200876849
:101BC0005BB2BF58AF421CD006228A569A421CD044
:101BD00012228A569A4222D01E228A569A4220D037
:101BE0002A228A5603209A4210D0124A1178137082
:101BF000A171BFF35F8F00220B4B1A6086F3108830
:101C0000F8BD81680C488850EFE7002042001218A8
:101C100092008918FF228A71084A8A80E5E701202C
:101C2000F4E70220F2E7C046240100D0C4020020FD
:101C300000ED00E028180020CD01001000BDFFFFDE
:101C4000AAAA0000F0B500220324FF278026200066
:101C50003D00094B11009C461040C0008540A14347
:101C600061440B680132AB43350085402B430B6068
:101C7000202AECD1F0BDC04600E400E010B50028F9
:101C800000D110BD00F060FAFBE7C04610B5094A6C
:101C90000300146884B0002C08D00122009106488B
:101CA000524203A9A047012004B010BD00F05AFA27
:101CB0000020F9E7F01700207D1C001001480421E6
:101CC000014B184710030020ED1C0010142310B521
:101CD0000100188804331B88984710BD162310B5DF
:101CE0000100188802331B88984710BDF0B5C6461E
:101CF00000B5002916D014230400012598461827A2
:101D0000890046184346216818883B88984701C4D3
:101D1000431E984140420540A642F3D1280004BC2E
:101D20009046F0BD0125F9E7144A936F9B0815D240
:101D30009066D166002905D0FFE7FFE7FFE7516F06
:101D4000106F704704B580210906C2175140002862
:101D500000D0C84305F0C4F8002104BD936F5B08B0
:101D6000FDD3F0B5946ED56E576F166FFFF7E0FF99
:101D70009466D56657671667F0BD0000000000D076
:101D8000134A936F9B0813D210665166002905D041
:101D9000FFE7FFE7FFE7516F106F704704B50028BA
:101DA00001D00020C04305F09BF8002104BDC046CF
:101DB000936F5B08FDD3F0B5946ED56E576F166FB9
:101DC000FFF7E2FF9466D56657671667F0BD00001F
:101DD000000000D0132370B51D78012D10D00BDD4D
:101DE0002448FFF77BFF244C01008022200000F0F4
:101DF000E3F8022D01D070BD1F4C204AA264FAE71F
:101E00002E001D4C1D4AA3085B421E401D422FD0D0
:101E1000330022602020B1006118801B0A604A60F4
:101E20008A60CA600A614A618A61CA610A624A625A
:101E30008A62CA620A634A638A63CA630A644A643A
:101E40008A64CA640A654A658A65CA650A664A661A
:101E50008A66CA660A674A674008102803D18A67FB
:101E6000CA67A264C7E71E339B00E250A264C2E7C0
:101E70000023CFE7534400002C180020811E0010DF
:101E800007B5604601880A0A0230DF2AFAD1C9B2D2
:101E9000820804D3028840880004104300E00068F0
:101EA000014A5050039007BD2C1800205143434372
:101EB000C9188C46110C83B24B4310B4040C614317
:101EC00092B280B2504362431C041B0C001910BC38
:101ED00059411304120CC01851416144704700006D
:101EE000132310B512481C78FFF7F8FE0100012CEF
:101EF0000AD003DD80220F4800F05EF80E48FFF79D
:101F0000E5FE0E4B186010BD0A4C5422200000F074
:101F100053F80B4B6365A365E36523666366A366AD
:101F2000E36623676367A367E3672362E361E5E72B
:101F3000534600002C1900204C3300002C1A0020BE
:101F4000451F001007B5604601880A0A0230DF2AE3
:101F5000FAD1C9B2820804D3028840880004104331
:101F600000E00068014A5050039007BD2C19002082
:101F700010B5040004F066FB002804D0034B0419DC
:101F80009C4200D810BD0248FFF7B2FA00000420BE
:101F9000906F001010B504F05FFB10BD01480421E4
:101FA000014B184720030020ED1C0010014B1B685B
:101FB0001847000020030020014B5B681847000011
:101FC00020030020F8B54746CE460D0080B5160028
:101FD0000700002A20DD4B1E98461A4B00240020E3
:101FE0009946002C2BD043461B5D0D3B5A42534172
:101FF000DBB22A5D0A2A13D00134A642F1DC864204
:1020000003DD311A3B6828189847AD19013D2B783C
:102010000D3B5A4253413B740CBC90469946F8BD67
:10202000002BE9D1A04203DA211A3B68281898470F
:10203000484602213B68013498472000DDE73B7C9D
:10204000D7E7C046FC6F0010F0B557464546DE4660
:102050004E46D023E0B51B061C68374B83B0070003
:102060000D00180001A990469A4604F041FF8146F0
:10207000002807D1019B9C4204D0504604F050FF39
:10208000012399466B1C03D1380004F0BFFD050005
:102090002A4B1C68002C2FD00A23294E9B4602E0B5
:1020A000E468002C28D02268002AF9D03368002B7D
:1020B00001D0A342F4D1637C002B2AD02A0039003E
:1020C0002000FFF77FFF4346002BE9D06B465A46BE
:1020D0001A71637C002B20D0237C002B26D0012199
:1020E000236801A898476B461B790D3B5A42534120
:1020F0002374E468002CD6D14B46002B12D1681E05
:102100008541E8B203B03CBC90469946A246AB4636
:10211000F0BD290038009047D5E70121236801A8C8
:102120009847BDE7504604F0D3FEE8E70221054892
:1021300023689847D7E7C046D80B002064110020D9
:1021400068110020FC6F001010B582B06B460400CF
:102150000022D81D01210470FFF776FF200002B095
:1021600010BDC04670B5040004F050FD012201000E
:1021700005002000FFF768FF084B1C68002C06D004
:102180006368002B05D09847E468002CF8D128003C
:1021900070BDE468002CF3D1F9E7C046641100205B
:1021A0000D4A1368002B13D0834202D109E09842F4
:1021B00008D01A00DB68002BF9D1002900D0D060CC
:1021C00070471A000029FBD1DB68D360C160F7E7D4
:1021D0000029F5D01060F3E76411002010B500F07D
:1021E00033F910BD7047C0460022014B1A7070478A
:1021F000291800204B790020FF2B0BD18B79002B65
:1022000008D1CB79012B05D1082A03D98A78024B52
:1022100009301A707047C046291800200120704705
:102220000120704770B5144A4B79087912781B0267
:10223000034300209A4200D070BD4B78012B08D098
:10224000022BF9D1002064220021FFF7EDFA0120D2
:10225000F2E7CA788C78120205001443D20502D541
:10226000620A93401D000548FFF730FD7F210300FF
:10227000214028009847C0462918002055420000F8
:102280000123037000487047007000104A780B78F3
:1022900012021A438B7810B51B041A43CB781B0625
:1022A00013439622D200934200D010BD0348FFF79B
:1022B0000DFD0021030008009847C046554200006C
:1022C00070B5184C82B006000D00200001A904F082
:1022D0000FFE002808D1D0231B061B68019A9A42E2
:1022E0001CD0200004F01CFE002001F09DFB002803
:1022F00007D103256D42200004F0EAFD280002B05A
:1023000070BD002001F0AAFB0028F2D02A003100A5
:10231000002001F0B3FB051EEBD0ECE703256D4276
:10232000ECE7C0460C180020F0B54F46D6464646AE
:10233000C0B5354B82B007000D00180001A99946C1
:1023400004F0D6FD002808D1D0231B061B68019A93
:102350009A4252D0484604F0E3FD002001F064FBAD
:10236000002842D00024002D44DD284B9A46984690
:1023700011E03919002001F00DFC060000F0C8FC46
:10238000002001F0B5FBFEF71BFD434618605960C5
:10239000A419AC422EDA002001F018FC2E1B02001A
:1023A000B04200DD3200002AE3D100F0B1FC002091
:1023B00001F09EFB002001F037FB00281AD000201E
:1023C00001F004FC0028E4D1FEF7FAFC53460E00AD
:1023D0001A685B68002184460D4812184B419E42E2
:1023E00008D8D6D19445D4D904E000200021074B69
:1023F00018605960484604F06BFD02B01CBC904662
:102400009946A246F0BDC0460C180020F80C0020EA
:1024100020A107001F2010B5FFF7A2FAFA20002123
:10242000800010BD10B5074C0021200004F060FDB5
:10243000002800D110BD00F06BFC200004F048FD26
:10244000F8E7C0460C18002070B51E4B84B01B780E
:1024500001F0C0FD1F201C49FFF792FA01211F2047
:10246000FFF76CFA1948FEF7A5FDFEF7ADFA060076
:10247000FEF7A6FCFA2204000D00002392001219B8
:102480006B41994214D811D0012102910021019190
:102490000F4930000091FEF79BFA0400631E9C4137
:1024A000E4B2002808D1200004B070BD9042EBD9FE
:1024B00001225242D317E7E701210648FFF770FED9
:1024C000F1E7C046C4C00010252400100C180020FD
:1024D000152400103003002000487047CC70001015
:1024E000004870477870001010B5002806D1124BD4
:1024F00012484380063BFF3B038010BD052818D8D7
:102500000F4B8000C4580D480023811C04E00133A8
:102510000A800231132B09D0E25C002AF7D1C022D5
:1025200001335B00920013439BB2E5E7CA239B0093
:10253000E2E70020E1E7C046090400003C1100206A
:10254000E0700010F0B5982357464546DE464E46EB
:10255000414AE0B5D75880243D0085B06402883BED
:1025600025400393274214D00121392000223B4B00
:1025700025001954597147315A541A7500200132F7
:10258000374901F03BF88022364B92021A65364BF0
:102590000393FB060CD480235B011F423AD1BD425A
:1025A00054D105B03CBC90469946A246AB46F0BD1E
:1025B000294B9A6D002A28D09A462A4BB946002604
:1025C00001259B46170003E06D000136202E1BD02D
:1025D0002F42F9D05346DB6D5B46682401229D658E
:1025E00073085C4334239046B2435343E4181B4BB7
:1025F0009C466444200000F03DFA00281AD1AF4305
:1026000001366D00002FE1D14F4680235B01039D11
:102610001F42C4D00022154900200A700E491D43F4
:102620000A600132012100F079FF80220D4B120374
:102630001A65B4E74346E26921790020009300233C
:1026400001F004F8200000F0E1F9D8E7290008487B
:102650007940FEF74DFFC046000011507011002078
:10266000000010500030115010000100261800200A
:10267000F870001010B501210520FFF75FF910BDBB
:10268000094B10B501221970392100230748425423
:1026900042714732835403750022002134300133E4
:1026A00000F06EFA10BDC046261800207011002000
:1026B0008022024B5202DA647047C046002011505B
:1026C00070B5050000F07AF905201F49FFF758F9A9
:1026D000D0221E4C00212000D200FFF767FC00230F
:1026E0001B4A1C4913701C4A402011608022520072
:1026F0006280A280D03AA354184A6370E062E2601C
:10270000352613600122A2554C36FF362687002657
:1027100020662430265412491248A3602161227099
:10272000E38620640360E3633433E2540E4B616458
:102730001A6480229205DA6490220C49280099508C
:10274000FFF7B6FF70BDC046452500107011002090
:102750002618002080011050F81700208400105027
:1027600000011050800010500000115010100100A6
:102770000B785B0602D14B78052B09D0012139205B
:102780000022064B5971195447311A755A54704733
:10279000034B1A78034B1A60F0E7C0467011002013
:1027A00026180020000011500A00F8B507234746FC
:1027B000CE46547910792340D4781B02A4070343F2
:1027C0007F20A20F682480B58978944608409146FE
:1027D00044433422A046CE0972433D4D4244AA18D8
:1027E0004FB21171F943C90FD17041424141567046
:1027F000907051716246012A5CD0402B5ED8342221
:102800006821724341435218AA18110064463031BE
:102810000C70D362C100002F3CDB2E4C0027A44675
:102820006144D1600F6000283CD02B4CC100A4460D
:1028300061449160682434224443A4467243274F84
:1028400062443968AA181161402B00D240233F220C
:10285000CB18134201D0934340333B60204B682296
:1028600059404B469C0634230C43A02173434243FA
:102870009B18EB189B6809060C431C6034235E43CD
:1028800034335843673B30182B5401200CBC90461E
:102890009946F8BD134C0027A4466144D1600F60EF
:1028A00000280FD1342300227343EB189A600E4A9C
:1028B0001A61E3E78022D2009342A0D319000B48AB
:1028C000FEF716FE064CC100A44661449160B1E7D4
:1028D000701100208400105004001050F8170020E0
:1028E0000000105080001050000110500C710010BA
:1028F00010B50C00342011001A00E30958437F235F
:10290000234068245C43044B0019C018012300F0E5
:1029100037F9012010BDC0467011002070B57F2529
:10292000342068230D40CC096B4360430C4EC01823
:1029300030188378002B05D143785A425341094A15
:102940000133936680220849120100F069F83421AE
:1029500001234C4334314D4364193419237570BD40
:102960007011002000201150FFF7FFFF70B57F2588
:10297000342068230D40CC096B4360430C4EC018D3
:1029800030188378002B05D143785A425341094AC5
:10299000013393660022084900F042F834210023F5
:1029A0004C4334314D4364193419237570BDC0460E
:1029B0007011002000301150FFF7FFFF80220E4BF6
:1029C000520410B51A600D4B0D491A6010008B6847
:1029D0009843FBD10B4C9C2200212000FFF7E6FA24
:1029E0008022002152010848FFF7E0FA09236367BB
:1029F0000333A36710BDC04600E0004000F0004074
:102A000000C00040000011500000105000230021C1
:102A10003222838281548361C3610362836270477F
:102A200010B5C368002901D01C682140002A11D0CC
:102A30008024E400114322420CD01A6822420BD1B8
:102A4000094A0A401A60FFE7FFE7FFE7FFE7FFE7F1
:102A5000FFE7C368196010BD4378044A9B00817882
:102A60009A580348FEF744FDFFFBFFFF4403002094
:102A700034710010F8B5467D0400002E00D168E0E6
:102A8000C368C0781D68AD05AD0D002843D1E3696A
:102A9000E918E161A269551A402D2ED86B189B1ACE
:102AA0005F427B412427DBB22562E3558A424DD346
:102AB0004AD0002823D08022D2002A4361790029FD
:102AC00002D0802080010243012041406171002B2F
:102AD00002D08023DB011A43E1680B685B053DD41B
:102AE000224B13400B60FFE7FFE7FFE7FFE7FFE73D
:102AF000FFE70020E3681A60F8BD4025CEE7A36A2F
:102B00002A009C4620696144FFF756FA842212028B
:102B1000E35D2A43D2E7E269A36A9446634418005E
:102B200021692A00FFF748FAE369E078E918E161D2
:102B30000028AFD0236A9D42ACD200230122236239
:102B40002433A161E254D7E73000D5E70848FEF707
:102B5000CFFC8178074A0848FEF7CAFC6378054A2B
:102B60009B00A1789A580548FEF7C2FCFFFBFFFFC7
:102B70008071001044030020547100103471001063
:102B800070B50400002B49D0437D002B03D00023F7
:102B90000375322023540023A261E361151C402AEF
:102BA00031D80123ADB2521B6375534253412426E1
:102BB00025220020DBB22562A162A355A054E27851
:102BC000002A22D08022D2002A436179002902D033
:102BD000802080010243012041406171002B02D01E
:102BE0008023DB011A43E1680B685B0519D4114BA4
:102BF00013400B60FFE7FFE7FFE7FFE7FFE7FFE7B3
:102C0000E3681A6070BD4025CBE72A002069FFF712
:102C1000D3F984221202A35D2A43D6E7FFF72AFFE5
:102C2000F0E76378044A9B00A1789A580348FEF7BE
:102C30005FFCC046FFFBFFFF44030020347100101F
:102C4000024B5878431E9841C0B270478010002054
:102C5000024B18784007C00F7047C0468010002014
:102C6000F8B5372200212148FFF7A0F9204C2000B9
:102C7000FEF7A0F91F4B1C601F4C20001830FEF718
:102C8000A7F9200001F09EFB1C4B1D4E1D4D1C6042
:102C9000002E04D02800FFF7F3FA1B4B1860002425
:102CA0002B78002E19D0194E174F9C420FD319D1F3
:102CB0003300984701342B78E4B2A342F5D20020C8
:102CC000FFF7FEFC0020FFF7D5FC0120F8BDE30074
:102CD0003A681B1B9B009B58EBE700F087FF2B78A3
:102CE000002BECD000231B68FFDEC04680100020C4
:102CF00038100020B81000204C030020BC10002029
:102D00008122001024180020500D0020ED3B0010FF
:102D1000F0B5DE4657464E464546E0B58BB001F06D
:102D200069F9002800D122E1B24B07AD9A46B24BB7
:102D30009B4653461E68B269EFF3108372B6116862
:102D40000029FCD0BFF35F8FF3612900300001F050
:102D5000ADF9B2690400F369BFF35F8F0021116020
:102D600083F31088002800D101E16B78082BE0D8AC
:102D70005A469B00D3589F466B68002BD9D0A86851
:102D80009847D6E77F2229799C4B0A405400C8090E
:102D90001B191B181800012620304479B4434471D4
:102DA00044790336B4434471002A00D1E6E0944AE2
:102DB000DB7C002A06D0934A1278934200D26DE160
:102DC0009B1ADBB2002B00D0D1E08F4C6A792878B7
:102DD000AB68A047ADE7894B0127984642461B7870
:102DE00000203B4313702B78994600F095FD60233B
:102DF0002E793340602B0DD0402B00D1DAE0F6065F
:102E0000F60E012E00D154E1022E00D110E1002E69
:102E100000D1E1E028780021FFF780FD80212878AB
:102E2000FFF77CFD85E7794B002B82D000E000BFE7
:102E30007FE7774B002B00D17BE7704B18780007BA
:102E4000C00F00E000BF74E76E4E6D4A0024337877
:102E5000002A00D198E06F4FA34208D8A34200D0C7
:102E600095E00134E4B2A34200D262E7F6D93968B2
:102E7000E2008C46121B920062449269002AF0D054
:102E80002878904701343378E4B2A342E4D250E783
:102E90003722002159482F78FFF788F81022FF21A8
:102EA0005D48FFF783F855481222FF211330FFF7E2
:102EB0007DF800F027FD534E514A00243378002A54
:102EC00000D170E0554A9046524A9146A34245D8F7
:102ED00066D143463800984701343378E4B2A342C0
:102EE000F4D24F4B002B00D123E700E000BF20E7D6
:102EF000424B37229846002118002F78FFF756F8EA
:102F000043461022D81CFF21FFF750F840461222FA
:102F1000FF211330FFF74AF800F0F4FC394E384A2D
:102F200000243378002A35D03A4A91469C420CD38B
:102F300036D13A4B3800984701343378E4B2A34293
:102F4000F4D242462B799370F3E64A461268E300C6
:102F500094461B1B9B0063445B68EBE74A46126880
:102F6000E30094461B1B9B0063445B68B2E70BB015
:102F70003CBC90469946A246AB46F0BD6A7928789B
:102F8000AB6800F0DDFCD4E6002B00D1D1E60023D5
:102F90009B69FFDE380000F065FE3378002BD0D04F
:102FA00000235B68FFDE380000F05CFE3378002B06
:102FB00097D0F5E71B4B002B00D12BE71A480028D0
:102FC00001D000F0A9FC484608A900E000BF0400B9
:102FD000002C00D0ADE61DE7202B00D19AE0002B9D
:102FE00000D017E76B79092B00D913E70F4A9B0034
:102FF000D3589F46BC100020AC71001080100020F8
:103000008122001024180020213E00100000000042
:1030100000000000500D002083100020653C0010CF
:10302000000000000000000000000000D07100104F
:103030007F22297A0A400292082A00D9EAE6C809C2
:103040000190002B00D182E0002453000293019AEA
:10305000029B94464344C74A6344DB7C002A06D063
:10306000C54A1278934200D23BE19B1ADBB2002B97
:1030700000D02DE1C148C24E00F04EFC4846F36836
:1030800008A99847002800D122E160222B791A4232
:1030900000D04EE6002000F03FFC4AE6DA00D31AEA
:1030A000B84A9B001268D318002B00D15FE75C6917
:1030B0008CE62B7A0F2B00D9ACE6AE4A4344DB7882
:1030C000002A05D0AC4A127893425ED39B1ADBB239
:1030D000002B00D09EE6A948A94C00F01DFC4846F4
:1030E000E36808A99847002800D022E66022110072
:1030F0002B7919401A4200D08CE66B790A2B00D04C
:1031000088E606AB9A1C11700123484608A900F016
:103110009DFB0EE62B7A0F2B00D97BE6954A4344A4
:10312000DB78002A06D0944A1278934200D202E15A
:103130009B1ADBB2002B00D06CE69048904C00F05C
:10314000EBFBE368484608A99847040040E76B7921
:103150000393012B00D1D8E0032B00D1CBE0002B4F
:1031600000D057E65300019A0293944643446344C7
:1031700020335B7906AA9B07DB0F02321380484697
:10318000022308A900F062FB61E77E4ADC00E31A33
:1031900014689B00E418002C00D13BE620699CE7F2
:1031A000EB88012B00D035E6434608221B78934379
:1031B0004246484608A9137000F030FBB9E5434683
:1031C0000220197806AB9A1C8B0689080140DB0F98
:1031D0000B4313804846022308A900F037FBA8E5FB
:1031E0004346AA7903925B78002B02D1002A00D0D3
:1031F000D0E04346039A484608A95A7000F00EFBF7
:1032000097E5434606AA5B780232137048460123CD
:1032100008A900F01BFB8CE5EB88A8791B0A0F2B93
:1032200000D9F7E5584A9B00D3589F4608A800F0FC
:1032300079FB4846A979FFF723FA434602221B7817
:1032400013434246137074E5EB88012B00D0E1E58F
:10325000434608221B781343AAE74C4B002B00D1AE
:10326000D8E500E000BF040006AB9E1C0222A11CB2
:103270003000FEF7A1FE22004846338808A900F07E
:10328000E5FA002800D054E5C4E5414B002B00D1FD
:10329000C0E500E000BF021E00D1BBE54846137840
:1032A00008A900F0D3FAECE72989FFF71DF9021EFF
:1032B000F4D1AFE5FFF714F9041ED5D1AAE5FFF765
:1032C0000BF91223020008A9484600F0BFFAD8E71C
:1032D00060222B791A4200D07AE6002000F01CFB15
:1032E00076E6284ADE00F31A16689B00F618002ED0
:1032F000EED03069C0E6EB88002B27D05300029354
:10330000484608A900F08AFAA1E6EB88002BF5D11F
:103310004846FFF72BFB019A029B94465B00029301
:103320004344634420335A790399B2435A715A791A
:103330008A435A71E4E7134ADC00E31A14689B00DD
:10334000E418002C00D165E52069F8E64846FFF74F
:10335000E5FA019A02219446029B5B0002934344E2
:10336000634420335A790A435A715A7917435F717B
:10337000C6E7C0468122001024180020753D0010C9
:1033800038720010500D0020F8710010000000008D
:1033900000000000501EC0B2FFF7A2F8002800D1C4
:1033A00038E54378022B00D034E50121C2790600CC
:1033B000931152110B400A4012015B011343424624
:1033C00012782F318A43134342461370C3788278B0
:1033D0001B021343C31809360493049BB34200D85D
:1033E00088E00023727802930B2A04D13378029686
:1033F000F3181E005A78042A00D00BE5049B424AB9
:103400009B1B9BB20193414B00241B78002A10D1D7
:103410001CE09C4226D13E4B31004846019A984719
:10342000002822D1394B01341B78E4B2A34200D2E8
:10343000F0E49C42EDD2374B1B680593059AE300FC
:1034400094461B1B9B0063449B68E5E7310048469C
:10345000019A00F019FC071E53D12C4B1B78002B4E
:1034600000D1D7E400239B68FFDE0700082F00D8B7
:10347000D0E4019BBB4200D2CCE44246B378D218E0
:10348000D178FF2900D0C5E4D470029A002A15D063
:1034900091781000994200D0BCE4127973799A4275
:1034A00000D0B7E4C278012A08D9023A0431414475
:1034B000D2B2080001322100FEF778FD7F213200F0
:1034C00000238C465178052907D161469078014048
:1034D000490041441331C0090C5411785B189BB268
:1034E0005218BB42EED3094BF6191B78A34200D306
:1034F00073E78FE4084B002B00D17AE600E000BFB1
:1035000077E6014CB2E7C046812200102418002063
:10351000893C0010500D00200000000030B585B03F
:1035200005000C000C22002101A8FEF73FFD6B46B0
:103530001D715C71042C4BD005D8022C30D0032CAB
:1035400024D105B030BD052C20D12A4B1A78D207E2
:10355000F7D504211A788A431A70274B1C68A26990
:10356000EFF3108172B61368002BFCD0BFF35F8FAE
:10357000E161200001A900F065FEA269E369BFF3E3
:103580005F8F0021116083F31088DAE71A4B1C6803
:10359000A269EFF3108172B61368002BE6D1FBE746
:1035A0000121144B1A788A431A701A780331A24306
:1035B0001A7000225A701A788A431A700E4B1C68CF
:1035C000A269EFF3108172B61368002BCED1FBE72E
:1035D000084B1A78D207B4D504211A780A431A7016
:1035E000054B1C68A269EFF3108172B61368002BBB
:1035F000BCD1FBE780100020BC100020002330B5B8
:1036000085B001AD6B8028700633082202A86B706C
:10361000FEF7D2FC0C4B1C68A269EFF3108372B664
:1036200011680029FCD0BFF35F8FE36129002000FF
:1036300000F008FEA269E369BFF35F8F002111600B
:1036400083F3108805B030BDBC100020F0B5C6462D
:10365000804600B584B001AC0F001600002108229E
:1036600020001D00FEF7A2FC434623700723637071
:103670000F4B65711D682771A660AA69EFF310836F
:1036800072B611680029FCD0BFF35F8FEB61210097
:10369000280000F0D7FDAA69EB69BFF35F8F002116
:1036A000116083F3108804B004BC9046F0BDC0469E
:1036B000BC100020F8B54746D64680B59846089B12
:1036C00006000C00171E9A4621D0002506E052463F
:1036D000137023780135E418BD4218DA6378052B9E
:1036E00017D1E1788907890F414512D121003000B7
:1036F000FFF75AF800280CD0A378DA09012AE6D19E
:10370000099A013513702378E418BD42E6DB0120E5
:1037100000E000200CBC90469A46F8BD10B5FFF7BB
:1037200043F810BD70B57F240C406300144CC909E8
:10373000E418641820346379DB07DD0F002B18D1FF
:1037400063795B0701D5280070BD01210D4E494208
:10375000306803F0D5FB6379DB07DD0F002B0AD15E
:1037600063795B0708D404226379012513436371ED
:1037700002E00025E7E70025306803F0A9FBE2E757
:1037800080100020B810002070B50C0001210F4DF2
:103790004942286803F0B4FB7F2121404B000C49CB
:1037A000E409C918091920314B790024DB0708D432
:1037B0004B795B07DC0F002B03DA04224B79934330
:1037C0004B71286803F084FB200070BDB810002006
:1037D0008010002070B57F240C4065000E4C060060
:1037E0006419C8092418203465790020ED0700D534
:1037F00070BD01256079284360713000FFF778F8CB
:103800000028F5D101226379934363716379033210
:1038100093436371ECE7C0468010002070B50A4EF8
:103820000500082230000C00FEF7C6FB002161569F
:103830000023C943C90F2800F3600022C901B36007
:10384000FFF756F870BDC04624100020F8B5CE46EC
:1038500047469046294E80B58146082230000D002B
:103860001F00FEF7A9FB4346B3600023F381EC7908
:10387000AB7924021C43231CBC4200D93B1C9FB2E1
:10388000B381002C12D0002F1ED04346002B32D023
:103890003B1C402F1ED89FB233787F2B1FD80021AE
:1038A000174A3B004846FFF723F809E00021695614
:1038B0000023C943C90F00224846C901FFF718F881
:1038C0000CBC90469946F8BD33787F2B10D98021E7
:1038D0000022E6E740239FB233787F2BDFD9084CE4
:1038E0003A0041462000FEF767FB80212200D8E71E
:1038F00000210022D5E70020E2E7C0462410002086
:103900004010002010B5142200210248FEF74EFBA3
:1039100010BDC04624100020014B18617047C046FE
:103920002410002010B5054C010008222000FEF7ED
:1039300043FB0023A360E36010BDC04624100020B9
:10394000F8B5364D1C002B780600DA09C9098A4201
:103950000CD00027002C01D03800F8BD304B0137C7
:10396000002BF9D02900FEF703FFF5E77F2B06D8DF
:10397000A868002837D022002A49FEF71DFBAB6853
:10398000EA8919191219EB8892B2EA81A960934267
:1039900015D03F2C13D9AC89A01A071C80B240283F
:1039A0002DD82B78BFB27F2B2BD80021A24233D049
:1039B0001C4A3B003000FEF79BFF0700CCE72B6959
:1039C000002B04D029003000984700280DD000219A
:1039D00069560023C943C90F00223000C901FEF710
:1039E00087FF0700B8E70027B6E700213000FEF7A1
:1039F00095FF80213000FEF791FF0127ACE74027BB
:103A0000CFE7A24207D0074C3A002000FEF7D4FAD5
:103A100080212200CDE780210022CAE72410002067
:103A2000712700104010002010B50400FFF708F9BE
:103A3000002801D1002010BDFFF70AF90028F9D1B4
:103A400060000419230104481C1B240104190120EF
:103A500023791840EFE7C046540D002003004000D2
:103A6000C01810B50301181A0001034B1030C0181C
:103A700000F002FB10BDC046540D0020F0B544001C
:103A800020180401241A24012600C646174F1036B8
:103A9000F61900B5300092B200F05CFB0500300072
:103AA00000F0F6FA3F2803D8280004BC9046F0BD89
:103AB0003B190020D9789846FFF734FE0028F3D050
:103AC000300000F0E5FA3F280AD994239B00E21861
:103AD0004346D219D97800204023FFF77BFEE3E765
:103AE00043460020D978FFF74FFEDDE7540D002054
:103AF000F8B54746CE4680B547003B181C01E41A8E
:103B00002401234B26009846283646440500300001
:103B100000F0B2FA002804D100200CBC904699466F
:103B2000F8BDA146C1444B4600209978FFF7FAFD45
:103B30000028F1D0A4239B009C46644444443000F8
:103B40004022210000F006FB061E16D0FFF778F891
:103B5000002812D0FFF77CF800280ED14B461B79C5
:103B6000DB070AD54B462200997800203300FFF787
:103B700031FE0028D0D03000CFE77D192B015D1B2E
:103B80002D014544A9780020FFF7FEFDC4E7C0469B
:103B9000540D002043001B1870B51C01E41A2401C9
:103BA000094B2834E418050092B2200000F08CFB89
:103BB0000600200000F060FA3F2801D8300070BDF8
:103BC0002800FFF795FFF9E7540D0020030040009F
:103BD000C01810B50301181A0001034B2830C01893
:103BE00000F056FA10BDC046540D0020B42270B546
:103BF0001A4C82B0002120009200FEF7D7F9FF2373
:103C00006371174B8026E3800123002521002000EB
:103C1000238176000733658123733200009540319C
:103C2000073B103000F0ECF9210020004131320058
:103C3000FF3100950123283000F0E2F990239B002A
:103C4000E5182800FDF7B6F992239B006562E51898
:103C50002800FDF7AFF9E56302B070BD540D0020F8
:103C600000C2FFFF10B5074C052200212000FEF71F
:103C70009DF92000103000F0A5FB2000283000F056
:103C8000A1FB10BD540D0020F0B54B79060083B0A8
:103C9000022B02D18B79022B03D00025280003B020
:103CA000F0BDCB79062BF8D82F4FBB78002BF4D181
:103CB0008B7809253B700C780C196378242B0BD179
:103CC000082A02D80FE0AA420DD32378E418ED1891
:103CD0006378ADB2242BF6D0052B20D0042B02D173
:103CE00063790A2B2ED0214C200000F0D1F93F2817
:103CF000D4D92600103E0020F178FFF713FD0028EC
:103D0000CCD0200000F0C4F93F2816D990239B00A6
:103D1000E218F17840230020FFF75CFDBEE72100A8
:103D20003000FFF7FBFC0028B7D0A3787B70237826
:103D3000ED18E4186378ADB2D0E7F1780020FFF712
:103D400023FDABE70A4B277801930133009302224E
:103D500002233000E119FFF7ADFC00289DD00E359D
:103D6000ED19ADB2BFE7C046540D0020640D002030
:103D7000560D002060230A7870B513400024202BD4
:103D80000BD10B4A4B790D7910781B022B439842CB
:103D900003D14B780134202B01D0200070BD054B9E
:103DA000002BFAD00020911DFEF770FAF5E7C0460F
:103DB000540D00208D22001060230A7870B5134046
:103DC0000024202B11D1144A4B790E7915781B024F
:103DD00033439D4209D14B78212B08D81F2B04D99E
:103DE00007230632FFF732FD0124200070BD222B8D
:103DF000FBD1CD788B782D021D431571FFF70EFD99
:103E0000064B0124002BF0D029006A080020224034
:103E1000214000E000BFE8E7540D00200000000052
:103E2000F8B54E464546DE465746E0B51E00644BA3
:103E300080469946DB780D008B4200D072E04F46F9
:103E40001037002E19D094245E4BA4004C44002B54
:103E500000D194E04F46A3199B46CA461037210073
:103E6000380000F0EFF953465B79FF2B02D0217840
:103E700099425DD00134A345F1D1534B002B05D0BD
:103E8000380000F0F9F8002800D084E0380000F095
:103E9000FFF83F282FD8103FBB789D4207D0012460
:103EA00020003CBC90469946A246AB46F8BD474B25
:103EB000002B02D0002000E000BF454C200000F0A5
:103EC000DBF8002838D1200000F0D6F80028E6D131
:103ED000002EE4D0B306E2D1283CA1784046FFF79B
:103EE00021FC2500041EDAD0002300224046A978D8
:103EF000FFF770FCD4E73C00103C0020E178FFF7AE
:103F000011FC002839D0380000F0C2F83F2830D921
:103F100090239B00FA1800204023E178FFF75AFC19
:103F2000A378BAE74B469B788B42C0D00024B7E712
:103F3000002000E000BF9DE72500283D0020A97873
:103F4000FFF7F0FB0028BED09A239B00E718402221
:103F50003900200000F0FEF88246002803D0FEF76A
:103F60006FFE00281BD14B4600209978FFF70CFC10
:103F7000A9E70020E178FFF707FCA3788DE74F461B
:103F8000A3199A46103721003800013400F05AF97D
:103F9000A245F8D171E7002000E000BF76E7FEF708
:103FA00057FE0028DFD12B79DB07DCD553463A00DA
:103FB0000020A978FFF70EFC002800D06FE782E709
:103FC000540D002000000000000000000000000070
:103FD0007C0D002070B5064D2C78002C01D02000FF
:103FE00070BDFEF73DFE0028F9D001232B70F6E7E7
:103FF00025180020014B18787047C046251800206E
:10400000F0B5C64600B5140006AA1E00137880223B
:1040100005000F009846120294422BD840690028F0
:104020001AD00121494202F06BFF4346AC80640084
:10403000A4B22B72631EAB81002368696442EB81DA
:104040002F60EE806C812B82002811D002F040FF9F
:10405000012004BC9046F0BDAC806400A4B22B7279
:10406000631E6442E8812960EE80AB816C81288206
:104070000120EEE70020ECE710B5C489018A0200B8
:10408000601A80B28C4202D25389C01A80B210BD2D
:1040900010B5C489018A8388621A92B28C4202D216
:1040A0004089121A92B2981A80B210BDF8B5040075
:1040B00040690E00002803D00121494202F020FF90
:1040C000E589208AA9B22A1A83B292B2854202D225
:1040D0006089121A92B2A088A789904205D20A1A62
:1040E000BA422BDC92B222820200002A2ED0BB42BE
:1040F00006D961895B189BB2984203D81B1A9BB200
:104100009842FBD9E288216853433000C918FDF773
:1041100053FF012501200122A789218A8BB20918AA
:10412000B94210DD61895B18D3189BB260692382A4
:10413000002801D002F0CCFE2800F8BD6289821868
:104140008A1A92B2CFE79B189BB2EFE700200025B6
:10415000E3E7C046F0B5C64604004069884617004C
:1041600000B5002803D00121494202F0C9FEE089D0
:10417000218A82B2451A8BB2ADB2884202D26189DD
:104180006D1AADB2A688A089AE4207D2931B8342B6
:1041900036DC9BB235002382238A9BB2002D39D0B6
:1041A0003A1CAF4231D895B2834205D961895B1878
:1041B0009BB201E09B1B9BB29E42FBD95A192F0078
:1041C000E188B24228DC0A005943236840469C46F5
:1041D0006A436144FDF7F0FEA089228AD71993B2A1
:1041E000874214DD62899B18EB189BB260692382B9
:1041F000002801D002F06CFE280004BC9046F0BDFF
:104200006389F318D31A9BB2C4E72A1CCBE75B1966
:104210009BB2EBE70027E0E7F61AB6B232004A435A
:104220005943236840469C466144FDF7C5FEE38838
:10423000AA1B180070435A4321684044FDF7BCFE96
:10424000A089CAE7F8B5040040690E00002803D031
:104250000121494202F054FEE289218A95B2531AA3
:104260009BB2914202D962899B1A9BB2A2889A4260
:1042700026D0A1892B00A94206D26389EB189BB2F4
:104280009A4203D89B1A9BB29A42FBD9E2882168D2
:104290005343C8183100FDF78FFEA389AB420AD9FA
:1042A0000135ADB260690127E581002801D002F037
:1042B0000FFE3800F8BD6389ED180135ADB2F1E7A6
:1042C000277A002FD5D1F4E7F8B54746CE4604004B
:1042D00080B515000F00002A52D04069002803D095
:1042E0000121494202F00CFEE689237A208AA18846
:1042F000B6B280B2002B38D1331A9BB2864202D2BA
:1043000062899B1A9BB2CB1A1A1C9BB2AB4252D841
:1043100093B298461D00E288A0893300B04205D2CE
:104320006389F3189BB201E05B1A9BB28B42FBD20C
:10433000581988422ADC534321686A43C818390057
:10434000FDF73AFEA38975199D421CDD6389F618B5
:104350004644B6B26069E681002801D002F0B8FD9B
:1043600040460CBC90469946F8BDA846E288A94252
:10437000D2D26D1A554388467F19E0810D00CBE7F4
:1043800000239846ECE74644B6B2E3E7C91A89B27F
:10439000894653432168C8184B4639005A43FDF7F4
:1043A0000BFE4B46E188EA1A4A43594320687918C4
:1043B000FDF702FEC6E72A1C93B298461D00E2886C
:1043C000AAE7C04610B50400406900280DD00121BD
:1043D000494202F095FD00236069E38123820028B1
:1043E00001D002F075FD012010BDE0812082FAE7C6
:1043F000F0B5D6468246334B464653445A42534163
:104400008022920294464F465B422F4A1B0463442B
:10441000C0B513602D4A88462D4913601D008A6877
:104420009543FBD10620FDF7F1F94346414681460D
:104430008020DF0D5E028A029B0D0221400005E014
:10444000914507D392197B41814239D00C0002314A
:10445000002BF5D080272602361B7F0002E0361B9A
:10446000012F07D031004846013FFDF789FC804508
:10447000F5D23D0253461C611B6852465D40FF2346
:104480001B021D4080235B0113431D600725CF21C4
:10449000126850466A400A401A6080220324920142
:1044A000243010430460504610C86C40214019600D
:1044B0000223104303601CBC90469946A246F0BDFF
:1044C0000C00C7E70040FCBF00E0004000F00040E7
:1044D00000C00040F0B5CE46474680B5974885B04D
:1044E000FDF740FE02F08AF8041E00D017E1944860
:1044F000FDF738FE00F04EF900F01CFAFA204000FB
:1045000002F02EF894204001FDF732FD061E00D186
:104510000EE194204001FDF72BFD071E00D101E1C3
:104520008848FDF71FFEFF23942298468021300023
:10453000009352000F3300F037FE4346942280214F
:104540005200380000930F3300F02EFE300000F0D0
:104550004DFEFF2000F050FE380000F047FEFF2027
:1045600000F04AFE7848FDF7FDFD7849784800F0F4
:1045700065FAFA200125C00001F0F2FF300000F0DA
:1045800035FEFF2000F038FE0123002250210A20D2
:10459000009500F07BFE022300225A210A2000959C
:1045A00000F074FE0323002264210A20009500F02D
:1045B0006DFE032300226E210A20009500F066FEA6
:1045C000782346224621142001950294009400F09D
:1045D00085FF7823142246214620019502940094F9
:1045E00000F07CFF78234622462114200195029496
:1045F000009401F08FF87823822246215020029502
:104600000195009401F086F8524B002199464346EB
:104610000A20514A019300944B4601F07DFD434628
:10462000142182204D4A009301944D4B01F0C6FDA8
:10463000434632214B4A0A20009301944B4601F035
:10464000DFFE380000F0D2FDFF2000F0D5FD002392
:1046500014225F21A0200095019401F0B9F80023F5
:1046600014225F21D2200195009501F0B1F85F235B
:104670007D225F21552002950195009400F02EFFC8
:10468000732369224B21692002950195009400F063
:1046900025FF434600218220334A01930094334B87
:1046A00001F08CFD4346324D14210A20314A00931B
:1046B00001942B0001F030FD43462F4A21210A20AE
:1046C000019300942B0001F09BFE2C48FDF74AFD5E
:1046D0003900300000F0B2F9FA20C00001F040FFCC
:1046E0002748FDF73FFD00F025F92648FDF73AFD84
:1046F00000F05EFA3000FDF74DFC3800FDF74AFC93
:10470000FA20C00001F02CFF1F48FDF72BFD01F03F
:1047100097FF002005B00CBC90469946F0BD0120E3
:104720004042F7E71948FDF71DFD01204042F1E73F
:104730001748FDF717FD01204042EBE754720010C7
:104740006C720010D4720010F87200101C860010F9
:104750009C73001080030020107300101C73001065
:1047600088030020B168DE3A28730010740300202B
:104770006C0300203073001015CD5B073C730010F4
:104780004C7300105873001068730010B072001062
:104790008872001070B5634C0121208801F0C0FEC2
:1047A000C82001F0DDFE0021208801F0B9FE0220C2
:1047B00001F0D6FE0121208801F0B2FEC82001F0F0
:1047C000CFFE594D0021288801F0AAFE574C002148
:1047D000208801F0A5FE042001F0B4FE012120880C
:1047E00001F09EFE524E0021288801F099FE002122
:1047F000208801F095FE712001F0A4FE208801219F
:1048000001F08EFE308801F095FEC307EBD5C8207D
:1048100001F0A6FE2888002101F082FE00212088F8
:1048200001F07EFE002001F08DFE2088012101F0C4
:1048300077FE2888012101F073FE0021208801F015
:104840006FFE0F2001F07EFE2088012101F068FE3E
:104850002888012101F064FE0021208801F060FE1B
:10486000892001F06FFE2088012101F059FE28887F
:10487000002101F055FE0021208801F051FE612049
:1048800001F060FE2088012101F04AFE2888012104
:1048900001F046FE0021208801F042FE802001F058
:1048A00051FE2088012101F03BFE2888012101F002
:1048B00037FE0021208801F033FE012001F042FE86
:1048C0002088012101F02CFE2888012101F028FE1A
:1048D0000021208801F024FE282001F033FE2088EA
:1048E000012101F01DFE2888002101F019FE0021A0
:1048F000208801F015FE502001F024FE20880121BF
:1049000001F00EFE2888012101F00AFE0021208816
:1049100001F006FE772001F015FE0121208801F04C
:10492000FFFD70BD141B00201C1B0020181B002065
:10493000081B0020F8B53E4E0021308801F0F0FD44
:104940003C4D0021288801F0EBFD102001F0FAFD1C
:1049500094270121288801F0E3FD7F001024012124
:10496000308801F0DDFD0021288801F0D9FD013CEF
:10497000FF2001F0E7FDA4B20121288801F0D0FD5D
:10498000002CECD1013FBFB2002FE7D100213088CD
:1049900001F0C6FD0021288801F0C2FD132001F0BE
:1049A000D1FD94270121288801F0BAFD7F00102451
:1049B0000121308801F0B4FD0021288801F0B0FD0C
:1049C000013CFF2001F0BEFDA4B20121288801F0C6
:1049D000A7FD002CECD1013FBFB2002FE7D1002191
:1049E000308801F09DFD0021288801F099FD1220FA
:1049F00001F0A8FD0121288801F092FD0E4C002154
:104A0000308801F08DFD0021288801F089FD71209A
:104A100001F098FD2888012101F082FD208801F035
:104A200089FDC307EBD5C82001F09AFDF8BDC0464B
:104A30001C1B0020181B0020081B0020F0B5D646C8
:104A400046464F46C0B5564E040089463088002180
:104A500001F066FD534D0021288801F061FD102012
:104A600001F070FD0121288801F05AFD10239846BD
:104A70004D4BA0449A46A2444446103C277801215D
:104A8000308801F04DFD0021288801F049FD3800F3
:104A900001F058FD01340121288801F041FD444511
:104AA000ECD110239846A044C245E5D100213088BE
:104AB00001F036FD0021288801F032FD922001F03E
:104AC00041FD0121288801F02BFD0021308801F0F3
:104AD00027FD0021288801F023FD132001F032FD7D
:104AE0000121288801F01CFD10234B4498462E4BD1
:104AF0009C46E1444446103C27780121308801F06F
:104B00000FFD0021288801F00BFD380001F01AFD8F
:104B100001340121288801F003FDA045ECD11023C8
:104B20009C46E044C145E5D10021308801F0F8FC05
:104B30000021288801F0F4FC922001F003FD0121FE
:104B4000288801F0EDFC0021308801F0E9FC00210B
:104B5000288801F0E5FC122001F0F4FC01212888EE
:104B600001F0DEFC114C0021308801F0D9FC00215D
:104B7000288801F0D5FC712001F0E4FC288801218F
:104B800001F0CEFC208801F0D5FCC307EBD5C8208E
:104B900001F0E6FC1CBC90469946A246F0BDC0461A
:104BA0001C1B0020181B002090120000081B002076
:104BB00070B5244D0021288801F0B2FC224C002160
:104BC000208801F0ADFC022001F0BCFC012120880E
:104BD00001F0A6FC1D4E0021288801F0A1FC002157
:104BE000208801F09DFC712001F0ACFC208801219F
:104BF00001F096FC308801F09DFCC307EBD5C8207E
:104C000001F0AEFC2888002101F08AFC00212088F8
:104C100001F086FC072001F095FC2088012101F0BD
:104C20007FFC2888012101F07BFC0021208801F015
:104C300077FCA52001F086FC0121208801F070FCA2
:104C400070BDC0461C1B0020181B0020081B002044
:104C500070B5444DEB89B42B53D020D8002B06D02F
:104C60005A2B1BD12B89013B5B1A010098B22B8A6E
:104C7000022B20D0022B26D8002B20D02B895C1EA3
:104C8000201A80B2834209D36B898B4206D3EB8A08
:104C9000022B25D0042B3DD0072B51D070BD87248B
:104CA0006400A342FAD16B89013B1B1A080099B238
:104CB0002B8A022BDED16B89013B591A89B22B89D1
:104CC0008342E1D2EAE7032BE8D12B895C1E201A4C
:104CD0006C8980B2013C611A89B28342D4D2DDE78B
:104CE0006B8A5943C3089BB2C9182B685C18595C7E
:104CF0000723184079330341002A1ED199432170BC
:104D0000CCE72B89013B181A6B8980B2013B591AF9
:104D100089B2ACE76B8AC026594383089BB2C91895
:104D20000323184040001A400641920102412D68B9
:104D30006C5CB44322436A54B0E70B432370ADE785
:104D40006B8AF024594343089BB2C91801231840C9
:104D500080000441120102412D686B5CA3431A4399
:104D60006A549BE7F01A0020F0B54E46DE465746DF
:104D70009B464546E0B50F0011005A46072683B012
:104D80000CAB1B8881460193928820391640701E17
:104D90008641D00830180E0059460DAB1B880968B3
:104DA00098465B468C460021DB8800915E43464373
:104DB0006644002B55D02E498A460025002A48D04B
:104DC0004346B8461F001AE00B4221D14B46581902
:104DD00053469B8880B2834209D35346DB884345C0
:104DE00005D33A004146FFF733FF5B469A88073CFC
:104DF00063425C410135ADB23619954221D2072498
:104E000080232C4023413178FF2FDDD10B42EED09F
:104E10004B465819164B80B29B888342E7D3144BFC
:104E2000DB884345E3D3019A4146FFF711FF5B4618
:104E3000073C9A8863425C410135ADB23619954210
:104E4000DDD33B0047469846530700D001365B460A
:104E5000DB8800990137013189B20091BFB29942D4
:104E6000ABD303B03CBC90469946A246AB46F0BDDE
:104E7000F01A0020F0B5454657464E46DE46E0B5EE
:104E800093B09C461CAB070018881DAB1C78C34D23
:104E900008900194AB8888461600BB4200D2DAE045
:104EA000EA888A4200D2D6E0B34200D2D3E061461B
:104EB0000C91624500D2CEE0F21B0D96D6179219E6
:104EC0007240414666460A92721AD617911971408D
:104ED0000E910D99D6178F428941B21A72400992EC
:104EE000AF4A0C9E1140AF4A944661441091022192
:104EF000B04592410E000E9916400A9A013E511A91
:104F00006200013A029202010F9203221196464674
:104F1000024092010B924A00049103929F4200D9F1
:104F2000ACE0EB88B34200D2A8E0029B002B00DC8F
:104F3000A4E0019B0597F21A06921A0099B2B21AE0
:104F4000FB1A9BB292B29B460792002332001800D4
:104F50005C460E009446059A0199904643445B1ABC
:104F600000D580E0069B002B00DA7CE013189BB292
:104F70009B460022079900904BE05A2B3DD14346B7
:104F80002F89013FF719FF1ABBB22700288A022890
:104F900055D0022800D995E0002859D028898046AC
:104FA000012040424044C31A9BB2434525D868893A
:104FB000B84222D3E88A022800D197E0042800D121
:104FC000B6E0072819D1688A4743580880B280465E
:104FD000012003409B00EF30184181469A464B4622
:104FE00028684744C05D9843534680460F9818414F
:104FF0000300404603432868C3550132029B12B2A6
:1050000093422FDD6346019801319B1889B21B1A28
:1050100028D4AB88A342F0D363469F18BBB298460E
:10502000EB888B42E9D3EB89B42B3ED000D972E0F8
:10503000002BA2D1288A0F0023000228A9D1688959
:105040008046012040428146C8444046C71BBFB24B
:1050500028898046A9E713B03CBC90469946A246F1
:10506000AB46F0BD00980130029A00B20134030053
:10507000A4B2824200DD6EE76646059F099B039A53
:10508000934200DD79E00D9BBB42E4D0049B0E9A75
:105090009B1A109A049394460A9A67445B00BFB225
:1050A00003939A4269DAAB8838E758462B896F89AF
:1050B000013BF3181B1A4046013FF7193F1A9BB2F8
:1050C000BFB263E7032800D097E728898046012014
:1050D00040424044C31A68899BB281460120404245
:1050E0008246D1444846C71BBFB25EE7688A474341
:1050F000D80880B28046286847448046B844C75DD7
:105100000898002831D107300340793018414346D0
:1051100087431F7071E787204000834200D06CE70F
:105120005B466F89013FF719FF1ABFB20B002DE7ED
:10513000688A7843804603209F0803405B00BFB223
:1051400047449846C02340460341994648462B6849
:10515000DB5D8343994643460B981841030048465C
:10516000184303002868C35547E7072003407930F8
:105170001841434607431F703FE70C9BB34200D1E1
:1051800069E70A9A049B9446119A634494460493EF
:1051900066445B00B6B2039385E7C046F01A002070
:1051A0000200FFFFFFFF000030B503AC25880E4C66
:1051B0002060022021816281A581E08248070FD111
:1051C000C80860820020A282E3812082002B04D0E4
:1051D000B42B02D00B0011001A00E280A18030BD78
:1051E000C808013080B2ECE7F01A0020014B1860CB
:1051F0007047C046F01A002030B5224C224AE38A9C
:10520000991E114202D0072B1DD030BDA18A002962
:10521000FBD00025628AC0B20023002A0ED06A4368
:105220002168C91888540133628A9BB29A42F6D821
:10523000A18A0135ADB28D42EED3E6E70135ADB2BC
:105240008D42F6D3E1E7A18A0029DED000250301D3
:105250001843628AC0B20023002A0ED06A43216834
:10526000C91888540133628A9BB29A42F6D8A18A3F
:105270000135ADB28D42EED3C7E70135ADB28D42F7
:10528000F6D3C2E7F01A0020FDFF0000F0B5574644
:105290004E464546DE46E0B58F4D87B01F0010AB49
:1052A00091461A78AB8882460C00834200D27DE09A
:1052B000EB888B4200D279E0012A00D1CDE0002FAB
:1052C00000D173E04B461B014A4605930323504629
:1052D000013C0021260013409B010138049380B259
:1052E00003920722904679328BB293468E32029314
:1052F00094460023019638E05A2932D12C89013C8A
:10530000A41A0200A4B2298A022941D002295CD839
:10531000002941D029894E1E341BA4B28C4220D8CA
:10532000698991421DD3E98A022900D166E00429E6
:1053300000D175E0072914D1698A4A43610889B20E
:10534000521801210C40A400EF3121418A465646F3
:105350002968895CB143059E264134000C432968C5
:105360008C5401331BB2BB4218DAAA888242F8D3AC
:10537000019AE988D21892B29142F2D3E989B4290C
:1053800033D01AD80029B7D1298A04000229BDD107
:10539000698901398A1A92B22989BFE702990130D5
:1053A000013109B2019E80B2B9429ADB07B03CBC20
:1053B00090469946A246AB46F0BD6145D1D1698978
:1053C00014000139091A8AB29DE70329C9D1298934
:1053D0004E1E341B6E89A4B2B14601267642B246F7
:1053E000D1444E46B21A92B298E72C896989013CA1
:1053F0000139241A8A1AA4B292B284E7698A4A430C
:10540000E10889B2521829688E18895C039A002A2B
:105410001CD1424614405A46224191433170A0E7C4
:10542000698A4A4391460322A10814406400BD32B0
:10543000224189B2494491464E462A68525CB243A1
:10544000049E26412C68324362548AE74246144047
:105450005A4622411143317083E77B00013B9B4652
:10546000002BA3DDCB1B03935346CA1BDE1B504608
:10547000002392B2B8468A465F469346B6B201937D
:105480000290029A9446424663449B1A1AD4039BA4
:10549000002B17DB002404E053464246E3189B1A16
:1054A00010D4AB88B34209D35B461919EB8889B293
:1054B0008B4203D34A463000FFF7CAFB013424B2C3
:1054C000BC42E9DB019B013601331BB20193B6B24A
:1054D000BB42D6DB6AE7C046F01A0020F0B557465B
:1054E000DE4645464E468346E0B591B00B93180024
:1054F0001AAB0F0019881BAB069119781CAB8A46B2
:1055000019780A92079180498C8888465C4500D2B8
:105510009FE0CB88BB4200D29BE01100944200D2B6
:1055200097E0834200D294E00A005B4693459241A3
:10553000CB1AD9175D18C31BDE174D40010098190F
:105540007040DE17F31A73400893704BB9461A4047
:105550006F4B09959C4662448F429B410D920222FB
:105560001A40531E0E9353465B00013B00930023E9
:105570002A1A01935300029353469BB20C90039254
:105580000F93019B079A0133DBB20193012A07D1E4
:1055900003211800FCF7F4FBC9B2002900D16EE02A
:1055A000A3453FD84346DB884B453BD3009B002BAC
:1055B00038DD52464B469B1A04935B4649460F9A88
:1055C00000279E1A00238A1A92B2B6B2059252465A
:1055D0005B449B1A1ED4049B002B1BDB0024059DFF
:1055E00006E04B46524601351B19ADB29B1A11D449
:1055F00043469B88B34208D34346DB88AB4204D37F
:1056000029003000069AFFF723FB0134009B24B2E7
:10561000A342E6DC0137009A3FB201363B00B6B246
:10562000BA42D4DC089B029A934219DC0A9B5B4580
:105630000FD0039B0C9A9A1A0D9B03925B449BB26A
:105640009B465300099A02939A4209DA43469C8882
:1056500097E711B03CBC90469946A246AB46F0BDD8
:105660000B9B4B45F5D0099B039A9C460E9B6244CD
:105670004B449BB29946530003920293E6E7A3453D
:105680003FD84346DB884B453BD3009B002B38DD9E
:1056900052464B469B1A01935B4649460F9A002798
:1056A0009E1A00238A1A92B2B6B2049252465B4402
:1056B0009B1A1ED4019B002B1BDB0024049D06E0DB
:1056C0004B4652460135E318ADB29B1A11D44346FE
:1056D0009B88B34208D34346DB88AB4204D3FF2206
:1056E00029003000FFF7B4FA0134009B24B29C4239
:1056F000E6DB0137009A3FB201363B00B6B2974273
:10570000D4DB002301938DE7F01A00200200FFFF95
:10571000FFFF0000F0B54746CE4680B583B01F00BE
:105720000AAB1B880C0098460BAB1B7816009946F9
:105730000CAB1978254B05009A88824218D3DB8878
:10574000A34215D3B24213D3BB4211D3002914D0C4
:10575000BC420DD24B4601934346210000932300E7
:10576000013432002800A4B2FFF784FBA742F1D134
:1057700003B00CBC90469946F0BD4B46019343469E
:105780003200210000932300FFF774FB4B46019386
:1057900043462A002100280000933B00FFF76AFBE4
:1057A0004B460193434632003900300000932300FA
:1057B000FFF760FB4B46019343462A0000933900F4
:1057C0003B003000FFF756FBD2E7C046F01A00203E
:1057D000F0B5454657464E46DE46E0B593B099468D
:1057E0001CAB1B78079098461DAB04001878A94B9A
:1057F0000D919A469B880D00A34200D2E7E25446E1
:10580000E188A94200D8E2E2032114B252008A1AC8
:1058100012B208940B92012800D119E3002C00DA8F
:10582000D5E242465200013A93464246414692B280
:1058300010920D9A5D46521A92B20592069200227B
:105840000F926A464E464446128C0992079A521AA3
:1058500011926A46918F0D988C46079A0A9162447C
:10586000844697B2099A0397624490B24A0092B272
:1058700000900C929F4247D85246D288824200D272
:10588000C6E2002D00DCC3E2119F021BB846414472
:1058900001928AB210999146411A89B2002202916E
:1058A0003100A84616004D468B46A14603998C460A
:1058B00049466244521A1DD4019A002A1ADB002775
:1058C000029C06E04946009A0134D219A4B2521A49
:1058D00010D4AB420AD35246D288A24206D35A46CB
:1058E00021002800FFF7B4F953469B8801373FB2E7
:1058F000B845E7DC013636B201353200ADB2B0450D
:10590000D4DC45465E464C46039A0C99521A92B234
:1059100004929A4246D852460099D2888A4241D38C
:10592000002D3FDD0A1B0A980192119AA846121A0F
:10593000109892B2091A89B2914602910022310060
:105940004D461600A1468B4604998C464946624452
:10595000521A1DD4019A002A1ADB0027029C06E085
:105960004946009A0134D219A4B2521A10D4AB425B
:105970000AD35246D288A24206D35A4621002800B2
:10598000FFF766F953469B8801373FB2B845E7DC1D
:10599000013636B201353200ADB2B045D4DC4546F1
:1059A0005E464C460A9809998446079A521A91B263
:1059B0000D9A0291624490B20090994200D922E27D
:1059C0005246D2880700904200D932E2002D00DC16
:1059D00019E2021B0192109AA8468A1A0E9292B2FC
:1059E0009146310000224D461600A1468B46029991
:1059F0008C4649466244521A1DD4019A002A1ADB89
:105A00000027059C06E04946009A0134D219A4B249
:105A1000521A10D4AB420AD35246D288A24206D3BD
:105A20005A4621002800FFF713F953469B88013797
:105A30003FB2B845E7DC013636B201353200ADB2CF
:105A4000B045D4DC0C99009A4546521A91B2029A9C
:105A50005E464C4601919A4240D85246D2888A42CC
:105A60003CD3019A3100121B0C926A46128FA84651
:105A7000914600224D461600A1468B4602998C465F
:105A800049466244521A1FD40C9A002A1CDB002794
:105A9000069C08E0F01A00204946019A0134D21908
:105AA000A4B2521A10D49D420AD85246D288A242B9
:105AB00006D35A4621002800FFF7CAF853469B88B0
:105AC00001373FB2B845E7DC013636B20135320066
:105AD000ADB2B045D2DC45465E464C4609990D9ABA
